{
  "_format": "hh-sol-artifact-1",
  "contractName": "BuyMeACoffee",
  "sourceName": "contracts/BuyMeACoffee.sol",
  "abi": [
    {
      "inputs": [],
      "stateMutability": "nonpayable",
      "type": "constructor"
    },
    {
      "anonymous": false,
      "inputs": [
        {
          "indexed": true,
          "internalType": "address",
          "name": "from",
          "type": "address"
        },
        {
          "indexed": false,
          "internalType": "uint256",
          "name": "timestamp",
          "type": "uint256"
        },
        {
          "indexed": false,
          "internalType": "string",
          "name": "name",
          "type": "string"
        },
        {
          "indexed": false,
          "internalType": "string",
          "name": "message",
          "type": "string"
        }
      ],
      "name": "NewMemo",
      "type": "event"
    },
    {
      "inputs": [
        {
          "internalType": "string",
          "name": "_name",
          "type": "string"
        },
        {
          "internalType": "string",
          "name": "_message",
          "type": "string"
        }
      ],
      "name": "buyCoffee",
      "outputs": [],
      "stateMutability": "payable",
      "type": "function"
    },
    {
      "inputs": [
        {
          "internalType": "address",
          "name": "_withdrawer",
          "type": "address"
        }
      ],
      "name": "changeWithdrawer",
      "outputs": [],
      "stateMutability": "nonpayable",
      "type": "function"
    },
    {
      "inputs": [],
      "name": "getMemos",
      "outputs": [
        {
          "components": [
            {
              "internalType": "address",
              "name": "from",
              "type": "address"
            },
            {
              "internalType": "uint256",
              "name": "timestamp",
              "type": "uint256"
            },
            {
              "internalType": "string",
              "name": "name",
              "type": "string"
            },
            {
              "internalType": "string",
              "name": "message",
              "type": "string"
            }
          ],
          "internalType": "struct BuyMeACoffee.Memo[]",
          "name": "",
          "type": "tuple[]"
        }
      ],
      "stateMutability": "view",
      "type": "function"
    },
    {
      "inputs": [],
      "name": "withdrawTips",
      "outputs": [],
      "stateMutability": "nonpayable",
      "type": "function"
    }
  ],
  "bytecode": "0x608060405234801561001057600080fd5b50600080546001600160a01b0319163317905561080e806100326000396000f3fe60806040526004361061003f5760003560e01c8063204206e1146100445780633aaa74b214610059578063865c51721461006e578063a868e65b14610099575b600080fd5b6100576100523660046105e0565b6100b9565b005b34801561006557600080fd5b50610057610252565b34801561007a57600080fd5b50610083610285565b6040516100909190610691565b60405180910390f35b3480156100a557600080fd5b506100576100b4366004610738565b610428565b6000341161010e5760405162461bcd60e51b815260206004820152601a60248201527f63616e27742062757920636f6666656520666f7220667265652100000000000060448201526064015b60405180910390fd5b604080516080810182523381524260208083019182529282018581526060830185905260028054600181018255600091909152835160049091027f405787fa12a823e0f2b7631cc41b3ba8828b3321ca811111fa75cd3aa3bb5ace810180546001600160a01b03939093166001600160a01b031990931692909217825592517f405787fa12a823e0f2b7631cc41b3ba8828b3321ca811111fa75cd3aa3bb5acf84015590518051939491936101ea937f405787fa12a823e0f2b7631cc41b3ba8828b3321ca811111fa75cd3aa3bb5ad0019291909101906104a4565b50606082015180516102069160038401916020909101906104a4565b505050336001600160a01b03167fc56140e05f516509ae28110e0f72e17558a7561630dad2647c3ae87d986e365c42848460405161024693929190610768565b60405180910390a25050565b6001546040516001600160a01b03909116904780156108fc02916000818181858888f1935050505061028357600080fd5b565b60606002805480602002602001604051908101604052809291908181526020016000905b8282101561041f576000848152602090819020604080516080810182526004860290920180546001600160a01b03168352600181015493830193909352600283018054929392918401916102fc9061079d565b80601f01602080910402602001604051908101604052809291908181526020018280546103289061079d565b80156103755780601f1061034a57610100808354040283529160200191610375565b820191906000526020600020905b81548152906001019060200180831161035857829003601f168201915b5050505050815260200160038201805461038e9061079d565b80601f01602080910402602001604051908101604052809291908181526020018280546103ba9061079d565b80156104075780601f106103dc57610100808354040283529160200191610407565b820191906000526020600020905b8154815290600101906020018083116103ea57829003601f168201915b505050505081525050815260200190600101906102a9565b50505050905090565b6000546001600160a01b031633146104825760405162461bcd60e51b815260206004820181905260248201527f6f6e6c79206f776e65722063616e206368616e676520776974686472617765726044820152606401610105565b600180546001600160a01b0319166001600160a01b0392909216919091179055565b8280546104b09061079d565b90600052602060002090601f0160209004810192826104d25760008555610518565b82601f106104eb57805160ff1916838001178555610518565b82800160010185558215610518579182015b828111156105185782518255916020019190600101906104fd565b50610524929150610528565b5090565b5b808211156105245760008155600101610529565b634e487b7160e01b600052604160045260246000fd5b600082601f83011261056457600080fd5b813567ffffffffffffffff8082111561057f5761057f61053d565b604051601f8301601f19908116603f011681019082821181831017156105a7576105a761053d565b816040528381528660208588010111156105c057600080fd5b836020870160208301376000602085830101528094505050505092915050565b600080604083850312156105f357600080fd5b823567ffffffffffffffff8082111561060b57600080fd5b61061786838701610553565b9350602085013591508082111561062d57600080fd5b5061063a85828601610553565b9150509250929050565b6000815180845260005b8181101561066a5760208185018101518683018201520161064e565b8181111561067c576000602083870101525b50601f01601f19169290920160200192915050565b60006020808301818452808551808352604092508286019150828160051b87010184880160005b8381101561072a57888303603f19018552815180516001600160a01b031684528781015188850152868101516080888601819052906106f982870182610644565b915050606080830151925085820381870152506107168183610644565b9689019694505050908601906001016106b8565b509098975050505050505050565b60006020828403121561074a57600080fd5b81356001600160a01b038116811461076157600080fd5b9392505050565b8381526060602082015260006107816060830185610644565b82810360408401526107938185610644565b9695505050505050565b600181811c908216806107b157607f821691505b602082108114156107d257634e487b7160e01b600052602260045260246000fd5b5091905056fea2646970667358221220197c34a96da33ab158199ce0836add4840534a08818260ac5419ee91650efbca64736f6c63430008090033",
  "linkReferences": {},
  "deployedLinkReferences": {}
}